:100000000C942A000C9421140C9454140C9487140E
:100010000C94EB110C940F100C9447000C944700B7
:100020000C9447000C94DC0F0C9447000C94A90F1F
:100030000C9447000C9490090C9463090C94CB0920
:100040000C9447000C9447000C9447000C94470014
:100050000C94470011241FBECFE5D4E0DEBFCDBF16
:1000600011E0A0E6B0E0E4E5FDE502C005900D92E8
:10007000AA36B107D9F711E0AAE6B1E001C01D9296
:10008000AB3BB107E1F70E94462E0C94A82E0C94CE
:100090000000EF92FF920F931F937B018C0120E0F1
:1000A00030E040E05FE40E94F50388238CF0C80153
:1000B000B70120E030E040E05FE40E94C1010E940F
:1000C00055049B01AC01205030404040504806C0D0
:1000D000C801B7010E9455049B01AC01B901CA01D6
:1000E0001F910F91FF90EF900895A0E0B0E0EBE733
:1000F000F0E00C94712EDC012B01FA019C919230FE
:1001000008F439C1EB018881823008F433C194309E
:1001100069F4843009F02FC111969C91119789815F
:10012000981709F428C1A0E6B0E025C1843009F48D
:1001300021C18230A9F4923009F01DC19A01AD01AC
:1001400088E0EA010990AE01E90109929E0181501F
:10015000C1F7E201898111969C918923818308C1AD
:10016000923009F407C112962D903C901397EB0141
:100170008A819B811496AD90BD90CD90DC901797AD
:10018000EC80FD800E811F819101281B390BB90184
:1001900037FF04C066277727621B730B6032710537
:1001A0000CF061C0121613066CF537014801062EDB
:1001B00004C096948794779467940A94D2F721E0C8
:1001C00030E040E050E004C0220F331F441F551FB1
:1001D0006A95D2F721503040404050402E213F21B7
:1001E00040235123211531054105510521F021E01E
:1001F00030E040E050E079018A01E628F72808293C
:1002000019293CC0232BD1F1260E371E350146019A
:10021000062E04C096948794779467940A94D2F734
:1002200021E030E040E050E004C0220F331F441FC3
:10023000551F6A95D2F721503040404050402A2146
:100240003B214C215D21211531054105510521F04E
:1002500021E030E040E050E059016A01A628B728CB
:10026000C828D9280BC0821593052CF01C01AA249C
:10027000BB24650103C0EE24FF24870111969C91E5
:10028000D20111968C91981709F445C0992339F041
:10029000A80197012A193B094C095D0906C0A6016E
:1002A00095012E193F09400B510B57FD08C01182D3
:1002B0003382228224833583468357831DC081E0A5
:1002C00081833382228288279927DC01821B930B4A
:1002D000A40BB50B84839583A683B7830DC0220F2F
:1002E000331F441F551F24833583468357838281E0
:1002F000938101979383828324813581468157813D
:10030000DA01C9010197A109B1098F5F9F4FAF4F72
:10031000BF4328F30BC0918333822282EA0CFB1C7B
:100320000C1D1D1DE482F5820683178383E0808304
:10033000248135814681578157FF1AC0C901AA27F8
:1003400097FDA095BA2F81709070A070B0705695EF
:10035000479537952795822B932BA42BB52B848318
:100360009583A683B7838281938101969383828349
:10037000DF0101C0D201CD01CDB7DEB7E2E10C94BF
:100380008D2EA0E2B0E0E7ECF1E00C947D2E6983C5
:100390007A838B839C832D833E834F835887E9E048
:1003A000EE2EF12CEC0EFD1ECE010196B7010E943F
:1003B00046068E010F5E1F4FCE010596B8010E94C2
:1003C00046068A8991E089278A8BC701B801AE0168
:1003D000475E5F4F0E9475000E947105A096E6E09F
:1003E0000C94992EA0E2B0E0E8EFF1E00C947D2EA1
:1003F00069837A838B839C832D833E834F835887C5
:10040000F9E0EF2EF12CEC0EFD1ECE010196B701A6
:100410000E9446068E010F5E1F4FCE010596B80161
:100420000E944606C701B801AE01475E5F4F0E94B9
:1004300075000E947105A096E6E00C94992EA0E24A
:10044000B0E0E5E2F2E00C94712E69837A838B834D
:100450009C832D833E834F835887CE010196BE0136
:10046000675F7F4F0E944606CE010596BE016F5E14
:100470007F4F0E9446069985923088F089898230A4
:10048000C8F0943019F4823051F404C0843029F457
:10049000923081F480E690E0C6C0923049F420E0CA
:1004A0009A858A89981321E02A87CE010996BBC0D4
:1004B000823049F420E09A858A89981321E02A8BBA
:1004C000CE014196B0C02D843E844F8458886D88FB
:1004D0007E888F88988CEE24FF248701AA24BB2471
:1004E000650140E050E060E070E0E0E0F0E0C10174
:1004F00081709070892BE9F0E60CF71C081D191D1E
:100500009A01AB012A0D3B1D4C1D5D1D80E090E062
:10051000A0E0B0E0E614F7040805190520F481E036
:1005200090E0A0E0B0E0BA01A901480F591F6A1F8E
:100530007B1FAA0CBB1CCC1CDD1C97FE08C081E0F5
:1005400090E0A0E0B0E0A82AB92ACA2ADB2A3196B6
:10055000E032F10549F0660C771C881C991C569412
:10056000479437942794C3CFFA85EA892B893C892D
:100570008B859C85280F391F2E5F3F4F17C0CA01FE
:1005800081709070892B61F016950795F794E79428
:1005900080E090E0A0E0B0E8E82AF92A0A2B1B2BC3
:1005A00076956795579547952F5F3F4F77FDE7CF36
:1005B0000CC0440F551F661F771F17FD4160EE0CDE
:1005C000FF1C001F111F21503040403090E05907A0
:1005D00090E0690790E4790760F32B8F3C8FDB0193
:1005E000CA018F779070A070B07080349105A1051A
:1005F000B10561F447FD0AC0E114F10401051105DC
:1006000029F0405C5F4F6F4F7F4F40781A8EFE1786
:1006100011F081E08A8F4D8F5E8F6F8F78A383E01A
:10062000898FCE0149960E947105A096E2E10C9453
:100630008D2EA8E1B0E0EFE1F3E00C94792E698310
:100640007A838B839C832D833E834F835887B9E0C5
:10065000EB2EF12CEC0EFD1ECE010196B7010E948F
:1006600046068E010F5E1F4FCE010596B8010E940F
:1006700046062985223008F47EC03989323010F4CC
:10068000B8017CC08A859A8989278A87243011F02D
:10069000223031F4231709F06EC060E670E06EC0BE
:1006A000343039F41D861E861F86188A1C861B86E8
:1006B00004C0323021F484E08987B7015FC02B8504
:1006C0003C858B899C89281B390B3C872B87ED84C3
:1006D000FE840F851889AD88BE88CF88D88CEA142F
:1006E000FB040C051D0540F4EE0CFF1C001F111F40
:1006F000215030403C872B8720E030E040E050E044
:1007000080E090E0A0E0B0E460E070E0EA14FB0478
:100710000C051D0540F0282B392B4A2B5B2BEA18C2
:10072000FB080C091D09B695A79597958795EE0CC2
:10073000FF1C001F111F6F5F7F4F6F31710531F775
:10074000DA01C9018F779070A070B0708034910584
:10075000A105B10561F427FD0AC0E114F10401050A
:10076000110529F0205C3F4F4F4F5F4F20782D87B8
:100770003E874F87588BBE01675F7F4FCB010E943A
:1007800071056896EAE00C94952EA8E1B0E0EBECD8
:10079000F3E00C947D2E69837A838B839C832D8375
:1007A0003E834F83588789E0E82EF12CEC0EFD1E26
:1007B000CE010196B7010E9446068E010F5E1F4FC3
:1007C000CE010596B8010E9446068985823040F028
:1007D0008989823028F0C701B8010E94BE0601C095
:1007E0008FEF6896E6E00C94992EA8E1B0E0EBEF6D
:1007F000F3E00C947D2E69837A838B839C832D8315
:100800003E834F83588789E0E82EF12CEC0EFD1EC5
:10081000CE010196B7010E9446068E010F5E1F4F62
:10082000CE010596B8010E9446068985823040F0C7
:100830008989823028F0C701B8010E94BE0601C034
:100840008FEF6896E6E00C94992EA8E1B0E0EBE219
:10085000F4E00C947D2E69837A838B839C832D83B3
:100860003E834F83588789E0E82EF12CEC0EFD1E65
:10087000CE010196B7010E9446068E010F5E1F4F02
:10088000CE010596B8010E9446068985823040F067
:100890008989823028F0C701B8010E94BE0601C0D4
:1008A00081E06896E6E00C94992EACE0B0E0EBE5D0
:1008B000F4E00C94812E69837A838B839C83CE0130
:1008C0000196BE016B5F7F4F0E9446068D8182308C
:1008D00061F1823050F1843021F48E81882351F10E
:1008E0002EC02F81388537FD20C06E812F31310514
:1008F0001CF06623F9F023C08EE190E0821B930B7D
:1009000029853A854B855C8504C056954795379572
:1009100027958A95D2F76623B1F05095409530958A
:1009200021953F4F4F4F5F4F0EC020E030E040E039
:1009300050E009C02FEF3FEF4FEF5FE704C020E02A
:1009400030E040E050E8B901CA012C96E2E00C9496
:100950009D2EA8E0B0E0EFEAF4E00C94792E7B0144
:100960008C01611571058105910519F482E0898377
:1009700060C083E089838EE1C82ED12CDC82CB82DB
:10098000ED82FE820F831887C801B7010E942205FD
:10099000FC013197F7FF3BC0222733272E1B3F0B6B
:1009A00057016801022E04C0D694C794B794A79447
:1009B0000A94D2F740E050E060E070E081E090E01F
:1009C000A0E0B0E004C0880F991FAA1FBB1F2A95A2
:1009D000D2F70197A109B1098E219F21A023B1234C
:1009E0000097A105B10521F041E050E060E070E022
:1009F0004A295B296C297D294D835E836F83788723
:100A00008EE190E08E1B9F0B9C838B8312C03097EE
:100A100081F00E2E04C0EE0CFF1C001F111F0A9463
:100A2000D2F7ED82FE820F831887CE1ADF0ADC82AE
:100A3000CB821A82CE0101960E9471052896EAE0C7
:100A40000C94952EEF92FF920F931F937B018C01D4
:100A500080E0E81680E0F80681E0080780E01807EB
:100A600088F48FEFE816F1040105110531F028F044
:100A700088E090E0A0E0B0E017C080E090E0A0E067
:100A8000B0E012C080E0E81680E0F80680E00807D9
:100A900081E0180728F088E190E0A0E0B0E004C011
:100AA00080E190E0A0E0B0E020E230E040E050E003
:100AB000281B390B4A0B5B0B04C016950795F7945E
:100AC000E7948A95D2F7F701E859FF4F8081281BF8
:100AD000310941095109C9011F910F91FF90EF9010
:100AE0000895DF92EF92FF920F931F93FC01E48031
:100AF000F58006811781D1808081823048F480E0C2
:100B000090E0A0E1B0E0E82AF92A0A2B1B2BA5C04F
:100B1000843009F49FC0823021F4EE24FF24870141
:100B200005C0E114F1040105110519F4E0E0F0E05D
:100B300096C0628173819FEF623879070CF05BC0C9
:100B400022E83FEF261B370B2A3131052CF020E03D
:100B500030E040E050E02AC0B801A701022E04C0F6
:100B600076956795579547950A94D2F781E090E07E
:100B7000A0E0B0E004C0880F991FAA1FBB1F2A95F0
:100B8000D2F70197A109B1098E219F21A023B1239A
:100B90000097A105B10521F081E090E0A0E0B0E070
:100BA0009A01AB01282B392B4A2B5B2BDA01C901A7
:100BB0008F779070A070B07080349105A105B10559
:100BC00039F427FF09C0205C3F4F4F4F5F4F04C0EF
:100BD000215C3F4F4F4F5F4FE0E0F0E02030A0E05E
:100BE0003A07A0E04A07A0E45A0710F0E1E0F0E07D
:100BF00079018A0127C06038710564F5FB01E1586D
:100C0000FF4FD801C7018F779070A070B07080340B
:100C10009105A105B10539F4E7FE0DC080E490E02F
:100C2000A0E0B0E004C08FE390E0A0E0B0E0E80E08
:100C3000F91E0A1F1B1F17FF05C016950795F7948D
:100C4000E794319687E016950795F794E7948A958F
:100C5000D1F705C0EE24FF248701EFEFF0E06E2FFF
:100C6000679566276795902F9F77D794DD24D79453
:100C70008E2F8695492F462B582F5D29B701CA0123
:100C80001F910F91FF90EF90DF900895FC01DB0121
:100C9000408151812281622F6F7770E0221F2227CD
:100CA000221F9381892F880F822B282F30E0991FD4
:100CB0009927991F11969C93119721153105A9F534
:100CC000411551056105710511F482E037C082E8D4
:100CD0009FEF13969C938E9312979A01AB0167E056
:100CE000220F331F441F551F6A95D1F783E08C9361
:100CF0000DC0220F331F441F551F12968D919C91DA
:100D00001397019713969C938E931297203080E04F
:100D1000380780E0480780E4580758F314962D936D
:100D20003D934D935C93179708952F3F310579F4C8
:100D3000411551056105710519F484E08C930895FE
:100D400064FF03C081E08C9312C01C9210C02F5727
:100D5000304013963C932E93129783E08C9387E058
:100D6000440F551F661F771F8A95D1F7706414963C
:100D70004D935D936D937C93179708951F93DC01BA
:100D8000FB019C91923008F447C08081823008F4C6
:100D900043C0943051F411961C91843099F58181AF
:100DA000682F70E0611B71093FC0843021F09230E0
:100DB00031F48230B9F18181882389F12DC01196F7
:100DC0001C9111978230F1F081811817D9F4129695
:100DD0002D913C911397828193818217930794F010
:100DE00028173907BCF014968D919D910D90BC91F8
:100DF000A02D2481358146815781281739074A075C
:100E00005B0718F4112341F00AC082179307A40767
:100E1000B50740F4112319F061E070E005C06FEFF1
:100E20007FEF02C060E070E0CB011F910895DF9377
:100E3000CF9300D000D000D0CDB7DEB78D838D81A9
:100E4000882341F08D81813029F08D81823011F02D
:100E50001E821FC081E08C8381E089831B8281E038
:100E60008A83CE0101960E94FE090E941E128D8186
:100E70000E943A128D8163E00E94B61223E537E0AA
:100E80008D81B9010E94C2138D818093980181E008
:100E90008E838E8126960FB6F894DEBF0FBECDBF2F
:100EA000CF91DF910895DF93CF93CDB7DEB78091D7
:100EB0006A01882381F481E06FEF7FEF0E948C0A42
:100EC0008091980162E00E94B61280916A018F5F62
:100ED00080936A010DC02CE631E081E0B9010E94E7
:100EE000CC0E8091980163E00E94B61210926A01C4
:100EF000CF91DF910895DF93CF9300D0CDB7DEB7C8
:100F00009A83898380916C0190916D01E981FA81C6
:100F1000918380830F900F90CF91DF910895DF939D
:100F2000CF93CDB7DEB727970FB6F894DEBF0FBECD
:100F3000CDBF9C838B83EB81FC818381882339F037
:100F4000EB81FC818381813011F01F8207C1EB812D
:100F5000FC81838180939A01AAE2B0E0EAE2F0E0AA
:100F6000808180618C93AAE2B0E0EAE2F0E08081C7
:100F700088608C93A0E4B0E0E0E4F0E080818F7BB7
:100F80008C93A0E4B0E0E0E4F0E0808180688C9392
:100F9000EB81FC818281282F30E03E832D838D817F
:100FA0009E818230910509F448C02D813E81233015
:100FB000310554F48D819E81009799F02D813E81F9
:100FC0002130310521F17BC08D819E8183309105D7
:100FD00009F449C02D813E812730310509F459C0FB
:100FE0006EC0A0E4B0E0E0E4F0E080818D7F8C93FF
:100FF000A0E4B0E0E0E4F0E080818B7F8C93AAE293
:10100000B0E0EAE2F0E080818B7F8C935AC0A0E4EC
:10101000B0E0E0E4F0E0808182608C93A0E4B0E096
:10102000E0E4F0E080818B7F8C93AAE2B0E0EAE21A
:10103000F0E080818B7F8C9344C0A0E4B0E0E0E4DA
:10104000F0E080818D7F8C93A0E4B0E0E0E4F0E0FC
:10105000808184608C93AAE2B0E0EAE2F0E08081D3
:101060008B7F8C932EC0A0E4B0E0E0E4F0E08081C0
:1010700082608C93A0E4B0E0E0E4F0E080818460E2
:101080008C93AAE2B0E0EAE2F0E080818B7F8C935F
:1010900018C0A0E4B0E0E0E4F0E0808182608C93CE
:1010A000A0E4B0E0E0E4F0E0808184608C93AAE208
:1010B000B0E0EAE2F0E0808184608C9302C01F829D
:1010C0004DC0EB81FC8183818130A9F4AFE5B0E0B4
:1010D000EFE5F0E0808180688C93AAE2B0E0EAE27C
:1010E000F0E0808180688C93AAE2B0E0EAE2F0E070
:1010F000808180648C93EB81FC8180819181CC0123
:10110000A0E0B0E0880F991FAA1FBB1F880F991F8E
:10111000AA1FBB1F880F991FAA1FBB1F880F991FEB
:10112000AA1FBB1F9C01AD0180E492E4AFE0B0E0D8
:10113000BC01CD010E944F2EDA01C90101979A83AB
:101140008983E0E4F0E089819A81892F992780835F
:10115000E9E2F0E08981808331E03F838F81279647
:101160000FB6F894DEBF0FBECDBFCF91DF910895CB
:10117000DF93CF9300D0CDB7DEB7898380919A01FA
:101180008823C1F4EBE2F0E08081882F90E0807248
:101190009070959587959595879595958795959553
:1011A000879595958795009769F3ECE2F0E0898142
:1011B000808313C080919A01813069F48981809382
:1011C000990110926801AAE2B0E0EAE2F0E08081C1
:1011D00080628C9302C01A8202C081E08A838A8175
:1011E0000F900F90CF91DF910895DF93CF9300D0B0
:1011F0000F92CDB7DEB79A83898380919A018823B5
:1012000091F4EBE2F0E08081881F8827881F882F07
:1012100090E090700097A9F3ECE2F0E08081E98122
:10122000FA8180830DC080919A01813039F48981DF
:101230009A8190936F0180936E0102C01B8202C05D
:1012400081E08B838B810F900F900F90CF91DF9176
:101250000895DF93CF9300D00F92CDB7DEB79A8376
:10126000898389819A81009711F41B8208C0898142
:101270009A81909371018093700181E08B838B81BF
:101280000F900F900F90CF91DF910895DF93CF9340
:1012900000D00F92CDB7DEB79A83898389819A8176
:1012A000009711F41B8208C089819A819093730181
:1012B0008093720181E08B838B810F900F900F9050
:1012C000CF91DF9108951F920F920FB60F921124C4
:1012D0008F93AF93BF93EF93FF93DF93CF93CDB7EC
:1012E000DEB780916801882379F4ECE2F0E0809128
:1012F0009901808381E080936801AAE2B0E0EAE28C
:10130000F0E080818F7D8C93CF91DF91FF91EF9101
:10131000BF91AF918F910F900FBE0F901F901895B6
:101320001F920F920FB60F9211242F933F934F935A
:101330005F936F937F938F939F93AF93BF93EF933D
:10134000FF93DF93CF93CDB7DEB7A0916E01B0913D
:101350006F01ECE2F0E080818C93809172019091BA
:101360007301009729F0E0917201F09173010995E2
:10137000CF91DF91FF91EF91BF91AF919F918F91AD
:101380007F916F915F914F913F912F910F900FBE81
:101390000F901F9018951F920F920FB60F92112465
:1013A0002F933F934F935F936F937F938F939F936D
:1013B000AF93BF93EF93FF93DF93CF93CDB7DEB798
:1013C0008091700190917101009729F0E091700176
:1013D000F09171010995CF91DF91FF91EF91BF914C
:1013E000AF919F918F917F916F915F914F913F91BD
:1013F0002F910F900FBE0F901F901895DF93CF93F2
:1014000000D000D00F92CDB7DEB79A838983E981EF
:10141000FA818281813019F421E02D8374C0E98141
:10142000FA818081282F30E03C832B838B819C8143
:101430008130910521F12B813C812230310509F465
:1014400045C08B819C81009709F059C0E981FA81E0
:10145000818180939E01E981FA8183818093A0013B
:10146000A3E5B0E0E3E5F0E080818F7B8C93A3E51A
:10147000B0E0E3E5F0E08081877F8C9343C0E981B1
:10148000FA81818180939F01E981FA818381809330
:101490009C01AFE4B0E0EFE4F0E080818E7F8C93BC
:1014A000AFE4B0E0EFE4F0E080818D7F8C93AEE4B8
:1014B000B0E0EEE4F0E08081877F8C93AEE4B0E0B2
:1014C000EEE4F0E080818F7E8C931CC0E981FA818C
:1014D000818180939D01E981FA81838180939B01C1
:1014E000A5E4B0E0E5E4F0E080818F7B8C93A5E497
:1014F000B0E0E5E4F0E08081877F8C9303C091E069
:101500009D8301C01D828D810F900F900F900F90D1
:101510000F90CF91DF910895DF93CF93CDB7DEB7D2
:101520002F970FB6F894DEBF0FBECDBF8C837E839E
:101530006D838C81882319F08C81823049F48D81F0
:101540009E818F3F910551F048F021E02F876BC3BA
:101550008C81813019F031E03F8765C38C81282F61
:1015600030E03E872D878D859E858130910509F479
:1015700024C12D853E852230310509F43BC28D857D
:101580009E85009709F04EC3E2E5F0E08D818095DD
:10159000808380919E01282F30E03C872B878B85AC
:1015A0009C858330910509F470C02B853C852430DF
:1015B000310584F48B859C8581309105D1F12B8593
:1015C0003C85223031050CF04AC08B859C85009704
:1015D000D1F0C9C02B853C852530310509F481C087
:1015E0008B859C85853091050CF465C02B853C85E9
:1015F0002630310509F48BC08B859C858730910599
:1016000009F49BC0B0C0A3E5B0E0E3E5F0E0808161
:101610008E7F8C93A3E5B0E0E3E5F0E080818D7FE1
:101620008C93A3E5B0E0E3E5F0E080818B7F8C93C1
:101630009DC0A3E5B0E0E3E5F0E0808181608C939C
:10164000A3E5B0E0E3E5F0E080818D7F8C93A3E536
:10165000B0E0E3E5F0E080818B7F8C9387C0A3E569
:10166000B0E0E3E5F0E080818E7F8C93A3E5B0E00D
:10167000E3E5F0E0808182608C93A3E5B0E0E3E5F0
:10168000F0E080818B7F8C9371C0A3E5B0E0E3E54F
:10169000F0E0808181608C93A3E5B0E0E3E5F0E0C9
:1016A000808182608C93A3E5B0E0E3E5F0E0808187
:1016B0008B7F8C935BC0A3E5B0E0E3E5F0E0808135
:1016C0008E7F8C93A3E5B0E0E3E5F0E080818D7F31
:1016D0008C93A3E5B0E0E3E5F0E0808184608C9337
:1016E00045C0A3E5B0E0E3E5F0E0808181608C9344
:1016F000A3E5B0E0E3E5F0E080818D7F8C93A3E586
:10170000B0E0E3E5F0E0808184608C932FC0A3E536
:10171000B0E0E3E5F0E080818E7F8C93A3E5B0E05C
:10172000E3E5F0E0808182608C93A3E5B0E0E3E53F
:10173000F0E0808184608C9319C0A3E5B0E0E3E51C
:10174000F0E0808181608C93A3E5B0E0E3E5F0E018
:10175000808182608C93A3E5B0E0E3E5F0E08081D6
:1017600084608C9303C091E09F875DC28091A0014B
:10177000813079F4AFE5B0E0EFE5F0E0808180689A
:101780008C93A9E5B0E0E9E5F0E0808181608C937D
:1017900049C2198207C080E09E012F5F3F4FB90107
:1017A0000E94140F89818823B1F3A8E5B0E0E8E531
:1017B000F0E0808181608C9335C2ECE4F0E08D81B3
:1017C0009E81909581959F4F9183808380919F0109
:1017D000282F30E03A87298789859A8583309105BB
:1017E00009F470C029853A852430310584F489854F
:1017F0009A8581309105D1F129853A8522303105CC
:101800000CF04AC089859A850097D1F0C9C0298516
:101810003A852530310509F481C089859A8585305E
:1018200091050CF465C029853A852630310509F407
:101830008BC089859A858730910509F49BC0B0C01B
:10184000AEE4B0E0EEE4F0E080818E7F8C93AEE415
:10185000B0E0EEE4F0E080818D7F8C93AEE4B0E008
:10186000EEE4F0E080818B7F8C939DC0AEE4B0E02D
:10187000EEE4F0E0808181608C93AEE4B0E0EEE4D1
:10188000F0E080818D7F8C93AEE4B0E0EEE4F0E098
:1018900080818B7F8C9387C0AEE4B0E0EEE4F0E013
:1018A00080818E7F8C93AEE4B0E0EEE4F0E0808146
:1018B00082608C93AEE4B0E0EEE4F0E080818B7F58
:1018C0008C9371C0AEE4B0E0EEE4F0E08081816022
:1018D0008C93AEE4B0E0EEE4F0E0808182608C9323
:1018E000AEE4B0E0EEE4F0E080818B7F8C935BC0EF
:1018F000AEE4B0E0EEE4F0E080818E7F8C93AEE465
:10190000B0E0EEE4F0E080818D7F8C93AEE4B0E057
:10191000EEE4F0E0808184608C9345C0AEE4B0E0FA
:10192000EEE4F0E0808181608C93AEE4B0E0EEE420
:10193000F0E080818D7F8C93AEE4B0E0EEE4F0E0E7
:10194000808184608C932FC0AEE4B0E0EEE4F0E0E0
:1019500080818E7F8C93AEE4B0E0EEE4F0E0808195
:1019600082608C93AEE4B0E0EEE4F0E080818460CD
:101970008C9319C0AEE4B0E0EEE4F0E080818160C9
:101980008C93AEE4B0E0EEE4F0E0808182608C9372
:10199000AEE4B0E0EEE4F0E0808184608C9303C0BC
:1019A00091E09F8740C180919C01813079F4AFE53F
:1019B000B0E0EFE5F0E0808180688C93A9E5B0E0CD
:1019C000E9E5F0E0808184608C932CC11A8207C025
:1019D0009E012E5F3F4F81E0B9010E94140F8A8162
:1019E0008823B1F3A8E5B0E0E8E5F0E08081846009
:1019F0008C9318C1E4E4F0E08D8180958083809120
:101A00009D01282F30E038872F838F819885833080
:101A1000910509F470C02F8138852430310584F494
:101A20008F81988581309105D1F12F8138852230C1
:101A300031050CF04AC08F8198850097D1F0C9C05C
:101A40002F8138852530310509F481C08F81988533
:101A5000853091050CF465C02F813885263031051D
:101A600009F48BC08F8198858730910509F49BC05C
:101A7000B0C0A5E4B0E0E5E4F0E080818E7F8C9317
:101A8000A5E4B0E0E5E4F0E080818D7F8C93A5E4EF
:101A9000B0E0E5E4F0E080818B7F8C939DC0A5E40D
:101AA000B0E0E5E4F0E0808181608C93A5E4B0E0F3
:101AB000E5E4F0E080818D7F8C93A5E4B0E0E5E47F
:101AC000F0E080818B7F8C9387C0A5E4B0E0E5E4F3
:101AD000F0E080818E7F8C93A5E4B0E0E5E4F0E057
:101AE000808182608C93A5E4B0E0E5E4F0E0808141
:101AF0008B7F8C9371C0A5E4B0E0E5E4F0E08081D9
:101B000081608C93A5E4B0E0E5E4F0E08081826040
:101B10008C93A5E4B0E0E5E4F0E080818B7F8C93CA
:101B20005BC0A5E4B0E0E5E4F0E080818E7F8C93BB
:101B3000A5E4B0E0E5E4F0E080818D7F8C93A5E43E
:101B4000B0E0E5E4F0E0808184608C9345C0A5E4DA
:101B5000B0E0E5E4F0E0808181608C93A5E4B0E042
:101B6000E5E4F0E080818D7F8C93A5E4B0E0E5E4CE
:101B7000F0E0808184608C932FC0A5E4B0E0E5E4C0
:101B8000F0E080818E7F8C93A5E4B0E0E5E4F0E0A6
:101B9000808182608C93A5E4B0E0E5E4F0E0808190
:101BA00084608C9319C0A5E4B0E0E5E4F0E08081A6
:101BB00081608C93A5E4B0E0E5E4F0E08081826090
:101BC0008C93A5E4B0E0E5E4F0E0808184608C9340
:101BD00003C091E09F8727C080919B01813079F4F9
:101BE000AFE5B0E0EFE5F0E0808180688C93A9E597
:101BF000B0E0E9E5F0E0808180648C9313C01B8243
:101C000007C09E012D5F3F4F82E0B9010E94140F73
:101C10008B818823B1F3A8E5B0E0E8E5F0E08081AE
:101C200080648C931F868F852F960FB6F894DEBF45
:101C30000FBECDBFCF91DF910895DF93CF9300D03A
:101C400000D0CDB7DEB789838981282F30E03C836F
:101C50002B838B819C8181309105E1F02B813C812C
:101C60002230310551F18B819C810097C9F580911B
:101C7000A0018130C1F5AFE5B0E0EFE5F0E0808193
:101C80008F778C93A9E5B0E0E9E5F0E080818E7F65
:101C90008C9329C080919C01813029F5AFE5B0E09B
:101CA000EFE5F0E080818F778C93A9E5B0E0E9E57E
:101CB000F0E080818B7F8C9316C080919B018130F6
:101CC00091F4AFE5B0E0EFE5F0E080818F778C93A1
:101CD000A9E5B0E0E9E5F0E080818F7B8C9303C05B
:101CE00091E09A8301C01A828A810F900F900F9021
:101CF0000F90CF91DF910895DF93CF9300D000D064
:101D000000D0CDB7DEB789837B836A83898188233E
:101D100019F08981823049F48A819B818F3F910536
:101D200021F018F021E02E832DC08981282F30E08A
:101D30003D832C838C819D818130910579F02C81AC
:101D40003D8122303105A1F08C819D810097B1F455
:101D5000E2E5F0E08A818095808313C0ECE4F0E056
:101D60008A819B81909581959F4F9183808309C043
:101D7000E4E4F0E08A818095808303C091E09E8353
:101D800001C01E828E8126960FB6F894DEBF0FBE6C
:101D9000CDBFCF91DF910895DF93CF9300D000D0D6
:101DA00000D0CDB7DEB789837B836A838981282FF2
:101DB00030E03E832D838D819E818130910599F0A5
:101DC0002D813E8122303105B9F08D819E810097B1
:101DD000E9F4E2E5F0E08081882F90E0EA81FB8180
:101DE0009183808316C0ECE4F0E080819181EA81E8
:101DF000FB81918380830DC0E4E4F0E08081882F33
:101E000090E0EA81FB819183808303C091E09C8311
:101E100001C01C828C8126960FB6F894DEBF0FBEDF
:101E2000CDBFCF91DF910895DF93CF9300D000D045
:101E300000D0CDB7DEB789837B836A838981282F61
:101E400030E03E832D838D819E818130910589F024
:101E50002D813E8122303105D9F08D819E81009700
:101E600051F5E8E5F0E080818170EA81FB818083B3
:101E700025C0E8E5F0E08081882F90E084709070C4
:101E80009595879595958795EA81FB81808316C006
:101E9000E8E5F0E08081882F90E080749070082E53
:101EA000892F000C881F990B000C881F991FEA814D
:101EB000FB81808303C091E09C8301C01C828C81E4
:101EC00026960FB6F894DEBF0FBECDBFCF91DF913F
:101ED0000895DF93CF9300D000D000D0CDB7DEB708
:101EE00089837B836A838981282F30E03E832D8319
:101EF0008D819E818130910581F02D813E8122303E
:101F0000310591F08D819E810097A9F48A819B8192
:101F1000909375018093740111C08A819B81909385
:101F20007701809376010AC08A819B819093790121
:101F30008093780103C091E09C8301C01C828C8156
:101F400026960FB6F894DEBF0FBECDBFCF91DF91BE
:101F500008951F920F920FB60F9211242F933F9363
:101F60004F935F936F937F938F939F93AF93BF93A1
:101F7000EF93FF93DF93CF93CDB7DEB780917401DA
:101F800090917501009729F0E0917401F09175012D
:101F90000995CF91DF91FF91EF91BF91AF919F9103
:101FA0008F917F916F915F914F913F912F910F9002
:101FB0000FBE0F901F9018951F920F920FB60F92A1
:101FC00011242F933F934F935F936F937F938F933E
:101FD0009F93AF93BF93EF93FF93DF93CF93CDB7CF
:101FE000DEB78091760190917701009729F0E0911A
:101FF0007601F09177010995CF91DF91FF91EF91F3
:10200000BF91AF919F918F917F916F915F914F9110
:102010003F912F910F900FBE0F901F9018951F9218
:102020000F920FB60F9211242F933F934F935F930C
:102030006F937F938F939F93AF93BF93EF93FF9390
:10204000DF93CF93CDB7DEB780917801909179017E
:10205000009729F0E0917801F0917901099580913C
:102060007C0190917D01009729F0E0917C01F09135
:102070007D010995CF91DF91FF91EF91BF91AF91D4
:102080009F918F917F916F915F914F913F912F9190
:102090000F900FBE0F901F901895DF93CF9300D035
:1020A00000D0CDB7DEB78983A5E4B0E0E5E4F0E089
:1020B000808180648C93A5E4B0E0E5E4F0E0808169
:1020C00088608C93A5E4B0E0E5E4F0E080818F7E49
:1020D0008C93A5E4B0E0E5E4F0E0808180628C932D
:1020E000A9E5B0E0E9E5F0E0808180648C93A9E5A2
:1020F000B0E0E9E5F0E0808180688C93AFE5B0E086
:10210000EFE5F0E0808180688C938981282F30E0B2
:102110003C832B838B819C818330910509F470C0B3
:102120002B813C812430310584F48B819C8181306A
:102130009105D1F12B813C81223031050CF04AC050
:102140008B819C810097D1F0C9C02B813C812530C7
:10215000310509F481C08B819C81853091050CF497
:1021600065C02B813C812630310509F48BC08B8101
:102170009C818730910509F49BC0B0C0A5E4B0E014
:10218000E5E4F0E080818E7F8C93A5E4B0E0E5E4A7
:10219000F0E080818D7F8C93A5E4B0E0E5E4F0E091
:1021A00080818B7F8C939DC0A5E4B0E0E5E4F0E0F6
:1021B000808181608C93A5E4B0E0E5E4F0E080816B
:1021C0008D7F8C93A5E4B0E0E5E4F0E080818B7F27
:1021D0008C9387C0A5E4B0E0E5E4F0E080818E7FD9
:1021E0008C93A5E4B0E0E5E4F0E0808182608C931C
:1021F000A5E4B0E0E5E4F0E080818B7F8C9371C0D2
:10220000A5E4B0E0E5E4F0E0808181608C93A5E492
:10221000B0E0E5E4F0E0808182608C93A5E4B0E07A
:10222000E5E4F0E080818B7F8C935BC0A5E4B0E0B7
:10223000E5E4F0E080818E7F8C93A5E4B0E0E5E4F6
:10224000F0E080818D7F8C93A5E4B0E0E5E4F0E0E0
:10225000808184608C9345C0A5E4B0E0E5E4F0E0C3
:10226000808181608C93A5E4B0E0E5E4F0E08081BA
:102270008D7F8C93A5E4B0E0E5E4F0E0808184609C
:102280008C932FC0A5E4B0E0E5E4F0E080818E7F80
:102290008C93A5E4B0E0E5E4F0E0808182608C936B
:1022A000A5E4B0E0E5E4F0E0808184608C9319C09F
:1022B000A5E4B0E0E5E4F0E0808181608C93A5E4E2
:1022C000B0E0E5E4F0E0808182608C93A5E4B0E0CA
:1022D000E5E4F0E0808184608C9303C091E09A8310
:1022E00001C01A828A810F900F900F900F90CF91AA
:1022F000DF910895DF93CF9300D000D0CDB7DEB744
:102300008B838B81853618F081E08C833FC08B8175
:10231000882F90E0A0E0B0E0BC01CD010E94A904AC
:10232000DC01CB01BC01CD0120E030E048EC52E4FF
:102330000E941903DC01CB01BC01CD0120E030E09B
:1023400040E853EC0E941F02DC01CB01BC01CD012F
:1023500020E030E040E853E40E94F201DC01CB01D0
:10236000BC01CD010E944900DC01CB019A83898325
:1023700089819A81009729F4E3E4F0E081E0808389
:1023800004C0E3E4F0E0898180831C828C810F909B
:102390000F900F900F90CF91DF910895DF93CF931F
:1023A00000D000D0CDB7DEB79A8389837C836B835E
:1023B00089819A8190937B0180937A018B819C81A2
:1023C00090937D0180937C010F900F900F900F9060
:1023D000CF91DF9108951F920F920FB60F921124A3
:1023E0002F933F934F935F936F937F938F939F931D
:1023F000AF93BF93EF93FF93DF93CF93CDB7DEB748
:1024000080917A0190917B01009729F0E0917A0107
:10241000F0917B010995CF91DF91FF91EF91BF91F1
:10242000AF919F918F917F916F915F914F913F916C
:102430002F910F900FBE0F901F901895DF93CF93A1
:10244000CDB7DEB7AFE5B0E0EFE5F0E080818068C2
:102450008C93CF91DF910895DF93CF93CDB7DEB703
:10246000AFE5B0E0EFE5F0E080818F778C93CF911E
:10247000DF910895DF93CF9300D000D0CDB7DEB7C2
:1024800089838981282F30E03C832B838B819C8139
:102490008130910589F02B813C8122303105A1F0FA
:1024A0008B819C810097C1F4ABE5B0E0EBE5F0E0F7
:1024B000808180648C9312C0ABE5B0E0EBE5F0E086
:1024C000808180688C930AC0ABE5B0E0EBE5F0E07A
:1024D000808180628C9302C01A8202C091E09A834C
:1024E0008A810F900F900F900F90CF91DF910895F8
:1024F000DF93CF9300D000D0CDB7DEB78983898139
:10250000282F30E03C832B838B819C818130910587
:1025100089F02B813C8122303105A1F08B819C8197
:102520000097C1F4ABE5B0E0EBE5F0E080818F7B94
:102530008C9312C0ABE5B0E0EBE5F0E080818F77E3
:102540008C930AC0ABE5B0E0EBE5F0E080818F7DD5
:102550008C9302C01A8202C091E09A838A810F9004
:102560000F900F900F90CF91DF910895DF93CF934D
:10257000CDB7DEB72B970FB6F894DEBF0FBECDBF39
:1025800089836A838981282F30E03B872A878A855F
:102590009B858130910509F468C02A853B852230EE
:1025A000310509F4BFC08A859B85009709F0DCC01E
:1025B0008A81282F30E0398728878885998581305E
:1025C000910521F128853985223031052CF4888543
:1025D0009985009761F047C02885398522303105FB
:1025E00021F1888599858330910571F13CC0A5E57D
:1025F000B0E0E5E5F0E080818E7F8C93A5E5B0E06A
:10260000E5E5F0E080818D7F8C93B0C0A5E5B0E07A
:10261000E5E5F0E0808181608C93A5E5B0E0E5E53B
:10262000F0E080818D7F8C93A1C0A5E5B0E0E5E569
:10263000F0E080818E7F8C93A5E5B0E0E5E5F0E0E9
:10264000808182608C9392C0A5E5B0E0E5E5F0E082
:10265000808181608C93A5E5B0E0E5E5F0E08081C4
:1026600082608C9383C01F8283C08A81282F30E0D0
:102670003E832D838D819E818130910521F12D81B5
:102680003E81223031052CF48D819E81009761F0CE
:1026900047C02D813E812230310521F18D819E81FF
:1026A0008330910571F13CC0A5E5B0E0E5E5F0E0CF
:1026B00080818B7F8C93A5E5B0E0E5E5F0E080813B
:1026C000877F8C9353C0A5E5B0E0E5E5F0E080811D
:1026D00084608C93A5E5B0E0E5E5F0E08081877F3C
:1026E0008C9344C0A5E5B0E0E5E5F0E080818B7F08
:1026F0008C93A5E5B0E0E5E5F0E0808188608C93FF
:1027000035C0A5E5B0E0E5E5F0E0808184608C931C
:10271000A5E5B0E0E5E5F0E0808188608C9326C017
:102720001F8226C08A81282F30E03C832B838B8137
:102730009C818230910531F02B813C812330310521
:1027400049F010C0A4E5B0E0E4E5F0E080818F7BC3
:102750008C930CC0A4E5B0E0E4E5F0E080818064F7
:102760008C9304C01F8204C01F8202C031E03F83EB
:102770008F812B960FB6F894DEBF0FBECDBFCF91E1
:10278000DF910895DF93CF9300D000D000D0CDB774
:10279000DEB789837B836A838A819B81009711F4EA
:1027A0001E822CC08981282F30E03D832C838C81B0
:1027B0009D818130910581F02C813D812230310550
:1027C00091F08C819D810097A9F48A819B819093DF
:1027D0007F0180937E0110C08A819B81909381014B
:1027E0008093800109C08A819B81909383018093AB
:1027F000820102C01E8202C091E09E838E812696D5
:102800000FB6F894DEBF0FBECDBFCF91DF91089514
:10281000DF93CF93CDB7DEB7EFE5F0E08081881F7F
:102820008827881F882F90E09070009739F4AFE5D3
:10283000B0E0EFE5F0E0808180688C93CF91DF918C
:1028400008951F920F920FB60F9211242F933F936A
:102850004F935F936F937F938F939F93AF93BF93A8
:10286000EF93FF93DF93CF93CDB7DEB780917E01D7
:1028700090917F01009729F0E0917E01F0917F0116
:102880000995CF91DF91FF91EF91BF91AF919F910A
:102890008F917F916F915F914F913F912F910F9009
:1028A0000FBE0F901F9018951F920F920FB60F92A8
:1028B00011242F933F934F935F936F937F938F9345
:1028C0009F93AF93BF93EF93FF93DF93CF93CDB7D6
:1028D000DEB78091800190918101009729F0E0910D
:1028E0008001F09181010995CF91DF91FF91EF91E6
:1028F000BF91AF919F918F917F916F915F914F9118
:102900003F912F910F900FBE0F901F9018951F921F
:102910000F920FB60F9211242F933F934F935F9313
:102920006F937F938F939F93AF93BF93EF93FF9397
:10293000DF93CF93CDB7DEB7809182019091830171
:10294000009729F0E0918201F09183010995CF91E0
:10295000DF91FF91EF91BF91AF919F918F917F9107
:102960006F915F914F913F912F910F900FBE0F90FC
:102970001F901895DF93CF93CDB7DEB727970FB68B
:10298000F894DEBF0FBECDBF89836A838A81813010
:10299000B1F58981282F30E03F832E838E819F817E
:1029A00081309105D1F02E813F81223031052CF408
:1029B0008E819F81009761F01FC02E813F81223060
:1029C000310581F08E819F818330910581F014C0A3
:1029D000EAE3F0E08FEF80834AC0E7E3F0E08FEFB7
:1029E000808345C0E4E3F0E08FEF808340C0E1E303
:1029F000F0E08FEF80833BC091E09D8339C08A81F6
:102A0000882391F58981282F30E03C832B838B81AB
:102A10009C8181309105C9F02B813C8122303105A8
:102A20002CF48B819C81009761F01BC02B813C8131
:102A30002230310571F08B819C818330910569F0E2
:102A400010C0EAE3F0E0108212C0E7E3F0E0108289
:102A50000EC0E4E3F0E010820AC0E1E3F0E010828F
:102A600006C091E09D8304C021E02D8301C01D823A
:102A70008D8127960FB6F894DEBF0FBECDBFCF91E4
:102A8000DF910895DF93CF9300D000D00F92CDB7A0
:102A9000DEB789836A838981282F30E03D832C83C8
:102AA0008C819D8181309105D1F02C813D81223036
:102AB00031052CF48C819D81009761F01FC02C8121
:102AC0003D812230310581F08C819D8183309105DB
:102AD00081F014C0EBE3F0E08A81808312C0E8E368
:102AE000F0E08A8180830DC0E5E3F0E08A81808395
:102AF00008C0E2E3F0E08A81808303C091E09B8319
:102B000001C01B828B810F900F900F900F900F9040
:102B1000CF91DF910895DF93CF9300D000D000D004
:102B2000CDB7DEB789837B836A838981282F30E024
:102B30003E832D838D819E8181309105E1F02D8131
:102B40003E81223031052CF48D819E81009761F009
:102B500027C02D813E8122303105A1F08D819E81DB
:102B600083309105B1F01CC0E9E3F0E08081EA8197
:102B7000FB81808318C0E6E3F0E08081EA81FB817D
:102B8000808311C0E3E3F0E08081EA81FB818083F0
:102B90000AC0E0E3F0E08081EA81FB81808303C02A
:102BA00091E09C8301C01C828C8126960FB6F8941C
:102BB000DEBF0FBECDBFCF91DF910895DF93CF93DE
:102BC000CDB7DEB728970FB6F894DEBF0FBECDBFE6
:102BD00089836A834B838A81873018F021E02887B4
:102BE000F5C08B81813009F072C08981282F30E0D7
:102BF0003F832E838E819F818130910549F12E8103
:102C00003F81223031052CF48E819F81009761F045
:102C10005BC02E813F812230310571F18E819F8111
:102C200083309105E9F150C0AAE3B0E0EAE3F0E0B7
:102C30008081482F8A81282F30E081E090E0022EA9
:102C400002C0880F991F0A94E2F7842B8C93BDC0B1
:102C5000A7E3B0E0E7E3F0E08081482F8A81282FE6
:102C600030E081E090E0022E02C0880F991F0A94A4
:102C7000E2F7842B8C93A9C0A4E3B0E0E4E3F0E096
:102C80008081482F8A81282F30E081E090E0022E59
:102C900002C0880F991F0A94E2F7842B8C9395C089
:102CA000A1E3B0E0E1E3F0E08081482F8A81282FA2
:102CB00030E081E090E0022E02C0880F991F0A9454
:102CC000E2F7842B8C9381C091E098877FC08B8141
:102CD000882309F077C08981282F30E03D832C8339
:102CE0008C819D818130910559F12C813D8122306B
:102CF00031052CF48C819D81009769F060C02C8196
:102D00003D812230310589F18C819D81833091058F
:102D100009F440C054C0AAE3B0E0EAE3F0E08081E7
:102D2000482F8A81282F30E081E090E0022E02C0F7
:102D3000880F991F0A94E2F7809584238C9345C0ED
:102D4000A7E3B0E0E7E3F0E08081482F8A81282FF5
:102D500030E081E090E0022E02C0880F991F0A94B3
:102D6000E2F7809584238C9330C0A4E3B0E0E4E3E1
:102D7000F0E08081482F8A81282F30E081E090E0C8
:102D8000022E02C0880F991F0A94E2F780958423CF
:102D90008C931BC0A1E3B0E0E1E3F0E08081482F19
:102DA0008A81282F30E081E090E0022E02C0880F57
:102DB000991F0A94E2F7809584238C9306C091E0D2
:102DC000988704C021E0288701C018868885289646
:102DD0000FB6F894DEBF0FBECDBFCF91DF9108953F
:102DE000DF93CF93CDB7DEB728970FB6F894DEBF49
:102DF0000FBECDBF89836A834B838A81873018F0E9
:102E000021E02887F5C08B81813009F072C089816B
:102E1000282F30E03F832E838E819F818130910562
:102E200049F12E813F81223031052CF48E819F8122
:102E3000009761F05BC02E813F812230310571F136
:102E40008E819F8183309105E9F150C0ABE3B0E002
:102E5000EBE3F0E08081482F8A81282F30E081E089
:102E600090E0022E02C0880F991F0A94E2F7842B8B
:102E70008C93BDC0A8E3B0E0E8E3F0E08081482F88
:102E80008A81282F30E081E090E0022E02C0880F76
:102E9000991F0A94E2F7842B8C93A9C0A5E3B0E0B4
:102EA000E5E3F0E08081482F8A81282F30E081E03F
:102EB00090E0022E02C0880F991F0A94E2F7842B3B
:102EC0008C9395C0A2E3B0E0E2E3F0E08081482F6C
:102ED0008A81282F30E081E090E0022E02C0880F26
:102EE000991F0A94E2F7842B8C9381C091E0988714
:102EF0007FC08B81882309F077C08981282F30E03B
:102F00003D832C838C819D818130910559F12C81E9
:102F10003D81223031052CF48C819D81009769F030
:102F200060C02C813D812230310589F18C819D81E9
:102F30008330910509F440C054C0ABE3B0E0EBE34B
:102F4000F0E08081482F8A81282F30E081E090E0F6
:102F5000022E02C0880F991F0A94E2F780958423FD
:102F60008C9345C0A8E3B0E0E8E3F0E08081482F0F
:102F70008A81282F30E081E090E0022E02C0880F85
:102F8000991F0A94E2F7809584238C9330C0A5E3BF
:102F9000B0E0E5E3F0E08081482F8A81282F30E01F
:102FA00081E090E0022E02C0880F991F0A94E2F798
:102FB000809584238C931BC0A2E3B0E0E2E3F0E0B1
:102FC0008081482F8A81282F30E081E090E0022E16
:102FD00002C0880F991F0A94E2F7809584238C938E
:102FE00006C091E0988704C021E0288701C01886B8
:102FF000888528960FB6F894DEBF0FBECDBFCF915F
:10300000DF910895DF93CF93CDB7DEB727970FB643
:10301000F894DEBF0FBECDBF89836A835C834B8388
:103020008A81873018F021E02F83A6C08981482F3C
:1030300050E05E834D838D819E8181309105C1F189
:103040002D813E812230310534F44D815E81411560
:10305000510571F08DC08D819E818230910509F4FA
:1030600047C02D813E812330310509F461C080C005
:10307000E9E3F0E08081482F50E08A81282F30E09A
:1030800081E090E002C0880F991F2A95E2F79A012B
:10309000282339238A81882F90E0A90102C0559501
:1030A00047958A95E2F7CA01EB81FC81808363C072
:1030B000E6E3F0E08081482F50E08A81282F30E05D
:1030C00081E090E002C0880F991F2A95E2F79A01EB
:1030D000282339238A81882F90E0A90102C05595C1
:1030E00047958A95E2F7CA01EB81FC81808343C052
:1030F000E3E3F0E08081482F50E08A81282F30E020
:1031000081E090E002C0880F991F2A95E2F79A01AA
:10311000282339238A81882F90E0A90102C0559580
:1031200047958A95E2F7CA01EB81FC81808323C031
:10313000E0E3F0E08081482F50E08A81282F30E0E2
:1031400081E090E002C0880F991F2A95E2F79A016A
:10315000282339238A81882F90E0A90102C0559540
:1031600047958A95E2F7CA01EB81FC81808303C011
:1031700051E05F8301C01F828F8127960FB6F894BC
:10318000DEBF0FBECDBFCF91DF910895DF93CF9308
:10319000CDB7DEB763970FB6F894DEBF0FBECDBFD5
:1031A0009E838D83ED81FE818081282F30E03B8BD3
:1031B0002A8B8A899B8981309105C1F02A893B89B4
:1031C0002330310511F18A899B89009769F5A7E2BF
:1031D000B0E0E7E2F0E080818F7B8C93A7E2B0E083
:1031E000E7E2F0E080818F778C9320C0A7E2B0E027
:1031F000E7E2F0E0808180648C93A7E2B0E0E7E250
:10320000F0E080818F778C9311C0A7E2B0E0E7E215
:10321000F0E0808180648C93A7E2B0E0E7E2F0E028
:10322000808180688C9302C0198A7BC3ED81FE8106
:103230008281282F30E0388B2F878F8598898330C3
:10324000910509F494C02F853889243031058CF418
:103250008F8598898130910509F448C02F85388978
:10326000223031050CF066C08F8598890097D1F027
:1032700032C12F8538892530310509F4C0C08F85CA
:103280009889853091050CF496C02F8538892630B1
:10329000310509F4D8C08F8598898730910509F4E4
:1032A000F6C019C1A7E2B0E0E7E2F0E080818E7FCE
:1032B0008C93A7E2B0E0E7E2F0E080818D7F8C9311
:1032C000A7E2B0E0E7E2F0E080818B7F8C93A7E299
:1032D000B0E0E7E2F0E08081877F8C93A7E2B0E086
:1032E000E7E2F0E080818F7E8C93F7C0A7E2B0E048
:1032F000E7E2F0E0808181608C93A7E2B0E0E7E252
:10330000F0E080818D7F8C93A7E2B0E0E7E2F0E00F
:1033100080818B7F8C93A7E2B0E0E7E2F0E08081D0
:10332000877F8C93A7E2B0E0E7E2F0E080818F7EB8
:103330008C93D3C0A7E2B0E0E7E2F0E080818E7F1B
:103340008C93A7E2B0E0E7E2F0E0808182608C93AA
:10335000A7E2B0E0E7E2F0E080818B7F8C93A7E208
:10336000B0E0E7E2F0E08081877F8C93B6C0A7E20F
:10337000B0E0E7E2F0E0808181608C93A7E2B0E00A
:10338000E7E2F0E0808182608C93A7E2B0E0E7E2C0
:10339000F0E080818B7F8C93A7E2B0E0E7E2F0E081
:1033A0008081877F8C93A7E2B0E0E7E2F0E0808144
:1033B0008F7E8C9392C0A7E2B0E0E7E2F0E08081DC
:1033C0008E7F8C93A7E2B0E0E7E2F0E080818D7F12
:1033D0008C93A7E2B0E0E7E2F0E0808184608C9318
:1033E000A7E2B0E0E7E2F0E08081877F8C93A7E27C
:1033F000B0E0E7E2F0E080818F7E8C936EC0A7E2C0
:10340000B0E0E7E2F0E0808181608C93A7E2B0E079
:10341000E7E2F0E080818D7F8C93A7E2B0E0E7E205
:10342000F0E0808184608C93A7E2B0E0E7E2F0E016
:103430008081877F8C93A7E2B0E0E7E2F0E08081B3
:103440008F7E8C934AC0A7E2B0E0E7E2F0E0808193
:103450008E7F8C93A7E2B0E0E7E2F0E080818260AB
:103460008C93A7E2B0E0E7E2F0E0808184608C9387
:10347000A7E2B0E0E7E2F0E08081877F8C93A7E2EB
:10348000B0E0E7E2F0E080818F7E8C9326C0A7E277
:10349000B0E0E7E2F0E0808181608C93A7E2B0E0E9
:1034A000E7E2F0E0808182608C93A7E2B0E0E7E29F
:1034B000F0E0808184608C93A7E2B0E0E7E2F0E086
:1034C0008081877F8C93A7E2B0E0E7E2F0E0808123
:1034D0008F7E8C9302C0198A24C2ED81FE81838184
:1034E000282F30E03E872D878D859E85833091057E
:1034F00009F470C02D853E852430310584F48D8516
:103500009E8581309105D1F12D853E852230310592
:103510000CF04AC08D859E850097D1F0C9C02D85DD
:103520003E852530310509F481C08D859E85853025
:1035300091050CF465C02D853E852630310509F4D2
:103540008BC08D859E858730910509F49BC0B0C0E6
:10355000A6E2B0E0E6E2F0E080818E7F8C93A6E206
:10356000B0E0E6E2F0E080818D7F8C93A6E2B0E0EF
:10357000E6E2F0E080818B7F8C939CC0A6E2B0E015
:10358000E6E2F0E0808181608C93A6E2B0E0E6E2C2
:10359000F0E080818D7F8C93A6E2B0E0E6E2F0E07F
:1035A00080818B7F8C9386C0A6E2B0E0E6E2F0E0FB
:1035B00080818E7F8C93A6E2B0E0E6E2F0E080812D
:1035C00082608C93A6E2B0E0E6E2F0E080818B7F3F
:1035D0008C9370C0A6E2B0E0E6E2F0E0808181600A
:1035E0008C93A6E2B0E0E6E2F0E0808182608C930A
:1035F000A6E2B0E0E6E2F0E080818B7F8C935AC0D7
:10360000A6E2B0E0E6E2F0E080818E7F8C93A6E255
:10361000B0E0E6E2F0E080818D7F8C93A6E2B0E03E
:10362000E6E2F0E0808184608C9344C0A6E2B0E0E2
:10363000E6E2F0E0808181608C93A6E2B0E0E6E211
:10364000F0E080818D7F8C93A6E2B0E0E6E2F0E0CE
:10365000808184608C932EC0A6E2B0E0E6E2F0E0C8
:1036600080818E7F8C93A6E2B0E0E6E2F0E080817C
:1036700082608C93A6E2B0E0E6E2F0E080818460B4
:103680008C9318C0A6E2B0E0E6E2F0E080818160B1
:103690008C93A6E2B0E0E6E2F0E0808182608C9359
:1036A000A6E2B0E0E6E2F0E0808184608C9302C0A4
:1036B000198A37C1ED81FE818181282F30E03C8756
:1036C0002B878B859C85009769F02B853C85213065
:1036D000310581F4A7E2B0E0E7E2F0E080818062AA
:1036E0008C930AC0A7E2B0E0E7E2F0E080818F7D32
:1036F0008C9302C0198A15C1ED81FE818481282F27
:1037000030E03A87298789859A85009731F02985A5
:103710003A852130310559F011C00E941E12A6E2EF
:10372000B0E0E6E2F0E0808188608C9309C0ED8132
:10373000FE818581882321F0198AF3C0198AF1C09E
:10374000ED81FE818581282F30E038872F838F819E
:1037500098858230910569F12F81388523303105B4
:103760002CF48F819885009771F0BAC02F8138852D
:103770002330310509F448C08F8198858430910544
:1037800009F489C0ADC0A0E5B0E0E0E5F0E08081DB
:103790008F7D8C93A0E5B0E0E0E5F0E080818F7B49
:1037A0008C93A0E5B0E0E0E5F0E080818F778C932A
:1037B00099C0A0E5B0E0E0E5F0E080818F7D8C93DA
:1037C000A0E5B0E0E0E5F0E0808180648C93A0E5C6
:1037D000B0E0E0E5F0E080818F778C9380E00E949C
:1037E0003A1280E063E00E94B612A1E3B0E0E1E3A8
:1037F000F0E080818B7F8C93A2E3B0E0E2E3F0E025
:1038000080818B7F8C936EC0A0E5B0E0E0E5F0E0B6
:10381000808180628C93A0E5B0E0E0E5F0E08081FB
:1038200080648C93A0E5B0E0E0E5F0E080818F77E4
:103830008C93A3E5B0E0E3E5F0E080818F7B8C938F
:10384000A3E5B0E0E3E5F0E0808188608C93A9E532
:10385000B0E0E9E5F0E0808182608C93E2E5F0E0A1
:103860001082ECE5F0E080E88083A3E5B0E0E3E5DA
:10387000F0E0808181608C93A3E5B0E0E3E5F0E0C7
:1038800080818D7F8C93A3E5B0E0E3E5F0E080815B
:103890008B7F8C9327C0A0E5B0E0E0E5F0E080816D
:1038A0008F7D8C93A0E5B0E0E0E5F0E080818F7B38
:1038B0008C93A0E5B0E0E0E5F0E0808180688C9337
:1038C00081E08C8319821B8281E08A83CE0101967C
:1038D0000E94FE0980E06FEF70E00E948C0A02C037
:1038E000198A1FC0ED81FE818581882339F0A6E207
:1038F000B0E0E6E2F0E0808180628C93A6E2B0E086
:10390000E6E2F0E0808180688C93ED81FE81848125
:103910008093A101ED81FE8185818093A40191E0D6
:10392000998B898963960FB6F894DEBF0FBECDBF21
:10393000CF91DF910895DF93CF930F92CDB7DEB78C
:103940008091A401882F90E0009749F5A6E2B0E0AD
:10395000E6E2F0E0808180648C938091A101882F61
:1039600090E081309105C1F4E6E2F0E08081882F9B
:1039700090E0807190709595879595958795959530
:10398000879595958795009779F3A6E2B0E0E6E2F2
:10399000F0E0808180618C9381E0898301C019828D
:1039A00089810F90CF91DF910895DF93CF9300D05D
:1039B000CDB7DEB79A838983E4E2F0E0808191811C
:1039C000E981FA81918380830F900F90CF91DF91ED
:1039D0000895DF93CF9300D00F92CDB7DEB79A83CF
:1039E0008983E981FA818081843010F01B821FC0B5
:1039F000E981FA818181873010F01B8218C0E9814A
:103A0000FA818281833010F01B8211C0E981FA8132
:103A10008081E981FA819181692F41E00E94DE1560
:103A2000E981FA8182810E94170781E08B838B8173
:103A30000F900F900F90CF91DF910895DF93CF9368
:103A4000CDB7DEB76D970FB6F894DEBF0FBECDBF12
:103A50009C8F8B8FEB8DFC8D8081843010F01D8EC0
:103A600004C1EB8DFC8D8181873010F01D8EFDC06F
:103A7000EB8DFC8D8281833010F01D8EF6C0EB8DB6
:103A8000FC8D8081EB8DFC8D9181692F41E00E943E
:103A9000F01680E090E0A0E3B1E48D8B9E8BAF8BBD
:103AA000B88F6D897E898F89988D2BEA3AEA4AEA28
:103AB0005EE30E941F02DC01CB01898B9A8BAB8BEA
:103AC000BC8B69897A898B899C8920E030E040E849
:103AD0005FE30E94250488231CF481E0888B91C059
:103AE00069897A898B899C8920E030E04FE753E42B
:103AF0000E94C50318160CF07BC06D897E898F89E2
:103B0000988D20E030E04AE754E40E941903DC017C
:103B1000CB018C879D87AE87BF876C857D858E8521
:103B20009F8520E030E04AE753E40E941F02DC0159
:103B3000CB0188879987AA87BB87688579858A851D
:103B40009B8520E030E040E85FE30E942504882365
:103B50002CF481E090E09F838E833FC06885798557
:103B60008A859B8520E03FEF4FE757E40E94C5031D
:103B700018164CF56C857D858E859F8520E030E09C
:103B800040E251E40E941F02DC01CB01BC01CD01E7
:103B90000E944900DC01CB019F838E830FC089E125
:103BA00090E09D838C838C819D810197F1F79D83AB
:103BB0008C838E819F8101979F838E838E819F81CD
:103BC000009769F724C0688579858A859B850E945E
:103BD0004900DC01CB019F838E838E819F819B8373
:103BE0008A838A819B810197F1F79B838A830FC027
:103BF00069897A898B899C890E944900DC01CB0103
:103C0000888B8889898389818A95F1F78983EB8DEF
:103C1000FC8D8081EB8DFC8D9181692F40E00E94AD
:103C2000F016CE0149960E947B07898D9A8DCC01B2
:103C3000A0E0B0E0BC01CD010E94A904DC01CB01F1
:103C4000BC01CD0120E030E048E652E40E941903B7
:103C5000DC01CB01BC01CD010E944900DC01CB019C
:103C6000EB8DFC8D838381E08D8F8D8D6D960FB6EE
:103C7000F894DEBF0FBECDBFCF91DF910895DF93E3
:103C8000CF93CDB7DEB7ABE3B0E0EBE3F0E08081FC
:103C900081608C93CF91DF910895DF93CF93CDB75F
:103CA000DEB7ABE3B0E0EBE3F0E080818E7F8C9396
:103CB000CF91DF910895DF93CF9300D0CDB7DEB7DA
:103CC0009A838983E981FA818181E981FA819281EC
:103CD000692F41E00E94DE15E981FA818181E98145
:103CE000FA819281692F40E00E94F01686E00E94DE
:103CF0004D108FE39EE12DE43EE1B9010E94CE110B
:103D00000F900F90CF91DF910895DF93CF9300D064
:103D1000CDB7DEB79A838983E981FA8180818823D0
:103D200021F48AE00E947A1103C080E00E947A1197
:103D30000F900F90CF91DF910895DF93CF93CDB780
:103D4000DEB78091BA01875E8093BA018091BA0193
:103D5000853618F084E68093BA018091BA010E94FA
:103D60007A11CF91DF910895DF93CF93CDB7DEB76E
:103D70008091BA0189518093BA018091BA010E9461
:103D80007A11CF91DF910895DF93CF930F92CDB742
:103D9000DEB789838981853688F49091BA0189815B
:103DA000890F8093BA018091BA01853618F084E6B4
:103DB0008093BA018091BA010E947A110F90CF913D
:103DC000DF910895DF93CF930F92CDB7DEB789834C
:103DD0008981853660F49091BA018981292F281B49
:103DE000822F8093BA018091BA010E947A110F90BC
:103DF000CF91DF910895DF93CF930F92CDB7DEB7C8
:103E000089838981853618F489810E947A110F90FF
:103E1000CF91DF910895DF93CF9300D000D00F9220
:103E2000CDB7DEB789836A834B838981282F30E041
:103E30003D832C838C819D818234910509F444C09B
:103E40002C813D812334310534F48C819D81813472
:103E5000910571F0BCC02C813D812334310509F4FA
:103E60005FC08C819D818434910509F485C0AFC009
:103E70008B818130A1F4AAE3B0E0EAE3F0E0808135
:103E8000482F8A81282F30E081E090E0022E02C086
:103E9000880F991F0A94E2F7842B8C9398C0AAE3A9
:103EA000B0E0EAE3F0E08081482F8A81282F30E0FB
:103EB00081E090E0022E02C0880F991F0A94E2F779
:103EC000809584238C9383C08B818130A1F4A7E3F8
:103ED000B0E0E7E3F0E08081482F8A81282F30E0CE
:103EE00081E090E0022E02C0880F991F0A94E2F749
:103EF000842B8C936CC0A7E3B0E0E7E3F0E0808113
:103F0000482F8A81282F30E081E090E0022E02C005
:103F1000880F991F0A94E2F7809584238C9357C0E9
:103F20008B818130A1F4A4E3B0E0E4E3F0E0808190
:103F3000482F8A81282F30E081E090E0022E02C0D5
:103F4000880F991F0A94E2F7842B8C9340C0A4E356
:103F5000B0E0E4E3F0E08081482F8A81282F30E050
:103F600081E090E0022E02C0880F991F0A94E2F7C8
:103F7000809584238C932BC08B818130A1F4A1E3A5
:103F8000B0E0E1E3F0E08081482F8A81282F30E023
:103F900081E090E0022E02C0880F991F0A94E2F798
:103FA000842B8C9314C0A1E3B0E0E1E3F0E08081C6
:103FB000482F8A81282F30E081E090E0022E02C055
:103FC000880F991F0A94E2F7809584238C930F90B1
:103FD0000F900F900F900F90CF91DF910895DF9386
:103FE000CF9300D000D00F92CDB7DEB789836A831C
:103FF0004B838981282F30E03D832C838C819D81E8
:104000008234910509F444C02C813D81233431056B
:1040100034F48C819D818134910571F0BCC02C8178
:104020003D812334310509F45FC08C819D81843446
:10403000910509F485C0AFC08B818130A1F4ABE359
:10404000B0E0EBE3F0E08081482F8A81282F30E058
:1040500081E090E0022E02C0880F991F0A94E2F7D7
:10406000842B8C9398C0ABE3B0E0EBE3F0E080816D
:10407000482F8A81282F30E081E090E0022E02C094
:10408000880F991F0A94E2F7809584238C9383C04C
:104090008B818130A1F4A8E3B0E0E8E3F0E0808117
:1040A000482F8A81282F30E081E090E0022E02C064
:1040B000880F991F0A94E2F7842B8C936CC0A8E3B5
:1040C000B0E0E8E3F0E08081482F8A81282F30E0DB
:1040D00081E090E0022E02C0880F991F0A94E2F757
:1040E000809584238C9357C08B818130A1F4A5E304
:1040F000B0E0E5E3F0E08081482F8A81282F30E0AE
:1041000081E090E0022E02C0880F991F0A94E2F726
:10411000842B8C9340C0A5E3B0E0E5E3F0E0808120
:10412000482F8A81282F30E081E090E0022E02C0E3
:10413000880F991F0A94E2F7809584238C932BC0F3
:104140008B818130A1F4A2E3B0E0E2E3F0E0808172
:10415000482F8A81282F30E081E090E0022E02C0B3
:10416000880F991F0A94E2F7842B8C9314C0A2E362
:10417000B0E0E2E3F0E08081482F8A81282F30E030
:1041800081E090E0022E02C0880F991F0A94E2F7A6
:10419000809584238C930F900F900F900F900F9029
:1041A000CF91DF910895DF93CF9300D000D00F928D
:1041B000CDB7DEB78A836B8319828A81282F30E0DE
:1041C0003D832C834C815D8142345105B1F18C815A
:1041D0009D818334910534F42C813D812134310556
:1041E00071F084C04C815D814334510509F443C0B2
:1041F0008C819D818434910509F45BC077C0E9E32B
:10420000F0E08081482F50E08B81282F30E081E062
:1042100090E002C0880F991F2A95E2F79A0128239F
:1042200039238B81882F90E0A90102C055954795CD
:104230008A95E2F7CA01898359C0E6E3F0E08081FC
:10424000482F50E08B81282F30E081E090E002C0C1
:10425000880F991F2A95E2F79A01282339238B8129
:10426000882F90E0A90102C0559547958A95E2F7FD
:10427000CA0189833BC0E3E3F0E08081482F50E02E
:104280008B81282F30E081E090E002C0880F991FD9
:104290002A95E2F79A01282339238B81882F90E011
:1042A000A90102C0559547958A95E2F7CA0189830D
:1042B0001DC0E0E3F0E08081482F50E08B81282F83
:1042C00030E081E090E002C0880F991F2A95E2F764
:1042D0009A01282339238B81882F90E0A90102C0FD
:1042E000559547958A95E2F7CA01898389810F9090
:1042F0000F900F900F900F90CF91DF910895DF9363
:10430000CF9300D000D0CDB7DEB789836A8389818F
:10431000282F30E03C832B838B819C818234910554
:1043200051F12B813C812334310534F48B819C8104
:104330008134910561F05AC02B813C8123343105D1
:1043400071F18B819C8184349105E9F14FC0ABE31D
:10435000B0E0EBE3F0E08081482F8A81282F30E045
:1043600081E090E0022E02C0880F991F0A94E2F7C4
:1043700084278C933BC0A8E3B0E0E8E3F0E08081C1
:10438000482F8A81282F30E081E090E0022E02C081
:10439000880F991F0A94E2F784278C9327C0A5E31E
:1043A000B0E0E5E3F0E08081482F8A81282F30E0FB
:1043B00081E090E0022E02C0880F991F0A94E2F774
:1043C00084278C9313C0A2E3B0E0E2E3F0E08081A5
:1043D000482F8A81282F30E081E090E0022E02C031
:1043E000880F991F0A94E2F784278C930F900F90FF
:1043F0000F900F90CF91DF910895DF93CF9300D06E
:1044000000D0CDB7DEB789836A838981282F30E059
:104410003C832B838B819C8182349105D9F02B8145
:104420003C812334310534F48B819C8181349105A6
:1044300061F01EC02B813C812334310581F08B81DA
:104440009C818434910581F013C0EAE3F0E08A8115
:1044500080830EC0E7E3F0E08A81808309C0E4E353
:10446000F0E08A81808304C0E1E3F0E08A81808308
:104470000F900F900F900F90CF91DF910895DF93E1
:10448000CF9300D000D0CDB7DEB789836A8389810E
:10449000282F30E03C832B838B819C8182349105D3
:1044A000D9F02B813C812334310534F48B819C81FC
:1044B0008134910561F01EC02B813C81233431058C
:1044C00081F08B819C818434910581F013C0EBE3F2
:1044D000F0E08A8180830EC0E8E3F0E08A81808387
:1044E00009C0E5E3F0E08A81808304C0E2E3F0E004
:1044F0008A8180830F900F900F900F90CF91DF9162
:104500000895DF93CF9300D000D0CDB7DEB78A8374
:1045100019828A81282F30E03C832B838B819C81F8
:1045200082349105D9F02B813C812334310534F458
:104530008B819C818134910561F01EC02B813C816F
:104540002334310581F08B819C818434910581F085
:1045500013C0E9E3F0E0808189830EC0E6E3F0E078
:104560008081898309C0E3E3F0E08081898304C00E
:10457000E0E3F0E08081898389810F900F900F90B4
:104580000F90CF91DF910895DF93CF9300D000D0AB
:104590000F92CDB7DEB789836A834B838981282F39
:1045A00030E03D832C838C819D818234910509F418
:1045B00044C02C813D812334310534F48C819D81AC
:1045C0008134910571F0BCC02C813D8123343105CB
:1045D00009F45FC08C819D818434910509F485C004
:1045E000AFC08B818130A1F4ABE3B0E0EBE3F0E04E
:1045F0008081482F8A81282F30E081E090E0022ED0
:1046000002C0880F991F0A94E2F7842B8C9398C0FC
:10461000ABE3B0E0EBE3F0E08081482F8A81282F04
:1046200030E081E090E0022E02C0880F991F0A94CA
:10463000E2F7809584238C9383C08B818130A1F431
:10464000A8E3B0E0E8E3F0E08081482F8A81282FDA
:1046500030E081E090E0022E02C0880F991F0A949A
:10466000E2F7842B8C936CC0A8E3B0E0E8E3F0E0C1
:104670008081482F8A81282F30E081E090E0022E4F
:1046800002C0880F991F0A94E2F7809584238C93C7
:1046900057C08B818130A1F4A5E3B0E0E5E3F0E001
:1046A0008081482F8A81282F30E081E090E0022E1F
:1046B00002C0880F991F0A94E2F7842B8C9340C0A4
:1046C000A5E3B0E0E5E3F0E08081482F8A81282F60
:1046D00030E081E090E0022E02C0880F991F0A941A
:1046E000E2F7809584238C932BC08B818130A1F4D9
:1046F000A2E3B0E0E2E3F0E08081482F8A81282F36
:1047000030E081E090E0022E02C0880F991F0A94E9
:10471000E2F7842B8C9314C0A2E3B0E0E2E3F0E074
:104720008081482F8A81282F30E081E090E0022E9E
:1047300002C0880F991F0A94E2F7809584238C9316
:104740000F900F900F900F900F90CF91DF910895E1
:10475000DF93CF9300D000D0CDB7DEB789836A83D3
:104760008A818F708A838981282F30E03C832B8354
:104770008B819C818234910529F12B813C812334EA
:10478000310534F48B819C818134910561F047C0FF
:104790002B813C812334310521F18B819C81843430
:1047A000910571F13CC0ABE3B0E0EBE3F0E0808158
:1047B000807F8C93ABE3B0E0EBE3F0E090818A8103
:1047C000892B8C93A8E3B0E0E8E3F0E08081807F60
:1047D0008C93A8E3B0E0E8E3F0E090818A81892B34
:1047E0008C93A5E3B0E0E5E3F0E08081807F8C93DB
:1047F000A5E3B0E0E5E3F0E090818A81892B8C931A
:10480000A2E3B0E0E2E3F0E08081807F8C93A2E35A
:10481000B0E0E2E3F0E090818A81892B8C930F90E5
:104820000F900F900F90CF91DF910895DF93CF936A
:1048300000D000D0CDB7DEB789836A838A818295A4
:10484000807F8A838981282F30E03C832B838B8172
:104850009C818234910529F12B813C8123343105DF
:1048600034F48B819C818134910561F047C02B81A8
:104870003C812334310521F18B819C818434910565
:1048800071F13CC0ABE3B0E0EBE3F0E080818F700E
:104890008C93ABE3B0E0EBE3F0E090818A81892B6D
:1048A0008C93A8E3B0E0E8E3F0E080818F708C9314
:1048B000A8E3B0E0E8E3F0E090818A81892B8C9353
:1048C000A5E3B0E0E5E3F0E080818F708C93A5E391
:1048D000B0E0E5E3F0E090818A81892B8C93A2E33C
:1048E000B0E0E2E3F0E080818F708C93A2E3B0E06F
:1048F000E2E3F0E090818A81892B8C930F900F90F6
:104900000F900F90CF91DF9108950F931F93DF9336
:10491000CF93CDB7DEB7C455D0400FB6F894DEBF05
:104920000FBECDBFFE01EF5AFF4F80E090E0A8E43C
:10493000B3E480839183A283B3838E01035B1F4F13
:10494000FE01EF5AFF4F608171818281938120E0E7
:1049500030E04AE753E40E941F02DC01CB01F8017A
:1049600080839183A283B383FE01E35BFF4F608169
:1049700071818281938120E030E040E85FE30E9412
:104980002504882344F4FE01E55BFF4F81E090E0BD
:104990009183808364C0FE01E35BFF4F608171817E
:1049A0008281938120E03FEF4FE757E40E94C503E7
:1049B00018160CF043C0FE01EF5AFF4F6081718161
:1049C0008281938120E030E040E251E40E941F02A6
:1049D000DC01CB018E01055B1F4FBC01CD010E94A4
:1049E0004900DC01CB01F801918380831FC0FE01E7
:1049F000E75BFF4F89E190E091838083FE01E75BF5
:104A0000FF4F808191810197F1F7FE01E75BFF4F36
:104A100091838083DE01A55BBF4FFE01E55BFF4F05
:104A200080819181019711969C938E93FE01E55BA5
:104A3000FF4F808191810097D1F627C08E01055BE1
:104A40001F4FFE01E35BFF4F608171818281938183
:104A50000E944900DC01CB01F80191838083DE01D3
:104A6000A95BBF4FFE01E55BFF4F808191818D9374
:104A70009C93FE01E95BFF4F808191810197F1F7E3
:104A8000FE01E95BFF4F9183808381E464E041E0B4
:104A90000E940B1F81E465E041E00E940B1F81E44E
:104AA00066E041E00E940B1F81E467E041E00E9464
:104AB0000B1F82E460E041E00E940B1F82E462E091
:104AC00041E00E940B1F82E461E041E00E940B1F65
:104AD00082E462E040E00E94EF1F82E00E94D6285C
:104AE000FE01ED5BFF4F80E090E0A0E2B1E4808347
:104AF0009183A283B3838E01015C1F4FFE01ED5BA6
:104B0000FF4F608171818281938120E030E04AE72C
:104B100053E40E941F02DC01CB01F80180839183E2
:104B2000A283B383FE01FF966081718182819381AC
:104B300020E030E040E85FE30E94250488232CF465
:104B400081E090E09EAF8DAF46C0FE01FF96608190
:104B500071818281938120E03FEF4FE757E40E940B
:104B6000C503181664F5FE01ED5BFF4F608171818E
:104B70008281938120E030E040E251E40E941F02F4
:104B8000DC01CB01BC01CD010E944900DC01CB015D
:104B90009EAF8DAF0FC089E190E09CAF8BAF8BAD26
:104BA0009CAD0197F1F79CAF8BAF8DAD9EAD01979A
:104BB0009EAF8DAF8DAD9EAD009769F716C0FE011B
:104BC000FF9660817181828193810E944900DC019E
:104BD000CB019EAF8DAF8DAD9EAD9AAF89AF89AD44
:104BE0009AAD0197F1F79AAF89AF88E20E94D62873
:104BF00080E090E0A0E8BFE38DAB9EABAFABB8AF79
:104C00006DA97EA98FA998AD20E030E04AE753E472
:104C10000E941F02DC01CB0189AB9AABABABBCABF2
:104C200069A97AA98BA99CA920E030E040E85FE35C
:104C30000E94250488232CF481E090E098AB8FA794
:104C40003FC069A97AA98BA99CA920E03FEF4FE753
:104C500057E40E94C50318164CF56DA97EA98FA9CB
:104C600098AD20E030E040E251E40E941F02DC01F8
:104C7000CB01BC01CD010E944900DC01CB0198AB06
:104C80008FA70FC089E190E09EA78DA78DA59EA557
:104C90000197F1F79EA78DA78FA598A9019798ABCB
:104CA0008FA78FA598A9009769F714C069A97AA959
:104CB0008BA99CA90E944900DC01CB0198AB8FA76E
:104CC0008FA598A99CA78BA78BA59CA50197F1F709
:104CD0009CA78BA78EE00E94D62880E090E0A0E8F9
:104CE000BFE38FA398A7A9A7BAA76FA178A589A5A5
:104CF0009AA520E030E04AE753E40E941F02DC015D
:104D0000CB018BA39CA3ADA3BEA36BA17CA18DA162
:104D10009EA120E030E040E85FE30E942504882364
:104D20002CF481E090E09AA389A33FC06BA17CA101
:104D30008DA19EA120E03FEF4FE757E40E94C503FD
:104D400018164CF56FA178A589A59AA520E030E04A
:104D500040E251E40E941F02DC01CB01BC01CD0105
:104D60000E944900DC01CB019AA389A30FC089E10D
:104D700090E098A38F8F8F8D98A10197F1F798A35A
:104D80008F8F89A19AA101979AA389A389A19AA13A
:104D9000009769F714C06BA17CA18DA19EA10E9410
:104DA0004900DC01CB019AA389A389A19AA19E8F16
:104DB0008D8F8D8D9E8D0197F1F79E8F8D8F81E068
:104DC0000E94D62880E090E0A0E2B1E4898F9A8F1B
:104DD000AB8FBC8F698D7A8D8B8D9C8D20E030E000
:104DE0004AE753E40E941F02DC01CB018D8B9E8BAE
:104DF000AF8BB88F6D897E898F89988D20E030E0E8
:104E000040E85FE30E94250488232CF481E090E0D1
:104E10009C8B8B8B3FC06D897E898F89988D20E01C
:104E20003FEF4FE757E40E94C50318164CF5698D14
:104E30007A8D8B8D9C8D20E030E040E251E40E9421
:104E40001F02DC01CB01BC01CD010E944900DC0145
:104E5000CB019C8B8B8B0FC089E190E09A8B898B67
:104E600089899A890197F1F79A8B898B8B899C891B
:104E700001979C8B8B8B8B899C89009769F714C059
:104E80006D897E898F89988D0E944900DC01CB0154
:104E90009C8B8B8B8B899C89988B8F878F8598892E
:104EA0000197F1F7988B8F8786E00E94D62880E0E3
:104EB00090E0A0E8BFE38B879C87AD87BE876B85BA
:104EC0007C858D859E8520E030E04AE753E40E9492
:104ED0001F02DC01CB018F839887A987BA876F8176
:104EE000788589859A8520E030E040E85FE30E947C
:104EF000250488232CF481E090E09E838D833FC0BD
:104F00006F81788589859A8520E03FEF4FE757E4E8
:104F10000E94C50318164CF56B857C858D859E8592
:104F200020E030E040E251E40E941F02DC01CB01AE
:104F3000BC01CD010E944900DC01CB019E838D8321
:104F40000FC089E190E09C838B838B819C810197CA
:104F5000F1F79C838B838D819E8101979E838D8346
:104F60008D819E81009769F714C06F81788589854E
:104F70009A850E944900DC01CB019E838D838D813F
:104F80009E819A83898389819A810197F1F79A8317
:104F90008983CC5ADF4F0FB6F894DEBF0FBECDBF6A
:104FA000CF91DF911F910F910895DF93CF93CDB7EC
:104FB000DEB76C970FB6F894DEBF0FBECDBF82E4AC
:104FC00060E041E00E94EF1F80E090E0A0E0B0E4EC
:104FD000898F9A8FAB8FBC8F698D7A8D8B8D9C8DCD
:104FE00020E030E04AE753E40E941F02DC01CB01DD
:104FF0008D8B9E8BAF8BB88F6D897E898F89988DB5
:1050000020E030E040E85FE30E94250488232CF490
:1050100081E090E09C8B8B8B3FC06D897E898F896E
:10502000988D20E03FEF4FE757E40E94C503181624
:105030004CF5698D7A8D8B8D9C8D20E030E040E2BF
:1050400051E40E941F02DC01CB01BC01CD010E9492
:105050004900DC01CB019C8B8B8B0FC089E190E078
:105060009A8B898B89899A890197F1F79A8B898B19
:105070008B899C8901979C8B8B8B8B899C89009752
:1050800069F714C06D897E898F89988D0E944900C7
:10509000DC01CB019C8B8B8B8B899C89988B8F87B8
:1050A0008F8598890197F1F7988B8F8782E460E06C
:1050B00040E00E94EF1F80E090E0A0E0B0E48B872A
:1050C0009C87AD87BE876B857C858D859E8520E01E
:1050D00030E04AE753E40E941F02DC01CB018F83DA
:1050E0009887A987BA876F81788589859A8520E016
:1050F00030E040E85FE30E94250488232CF481E03F
:1051000090E09E838D833FC06F81788589859A85E5
:1051100020E03FEF4FE757E40E94C50318164CF517
:105120006B857C858D859E8520E030E040E251E4F2
:105130000E941F02DC01CB01BC01CD010E9449008D
:10514000DC01CB019E838D830FC089E190E09C83BD
:105150008B838B819C810197F1F79C838B838D815D
:105160009E8101979E838D838D819E81009769F733
:1051700014C06F81788589859A850E944900DC0179
:10518000CB019E838D838D819E819A8389838981C2
:105190009A810197F1F79A8389836C960FB6F894F8
:1051A000DEBF0FBECDBFCF91DF910895DF93CF93C8
:1051B000CDB7DEB72F970FB6F894DEBF0FBECDBFC9
:1051C0008F878F85982F92959F7081E4692F0E9419
:1051D000162482E461E040E00E94EF1F0E94D52780
:1051E00081E46F850E94162482E461E040E00E9421
:1051F000EF1F0E94D52780E090E0A0E8BFE38B87F7
:105200009C87AD87BE876B857C858D859E8520E0DC
:1052100030E04AE753E40E941F02DC01CB018F8398
:105220009887A987BA876F81788589859A8520E0D4
:1052300030E040E85FE30E94250488232CF481E0FD
:1052400090E09E838D833FC06F81788589859A85A4
:1052500020E03FEF4FE757E40E94C50318164CF5D6
:105260006B857C858D859E8520E030E040E251E4B1
:105270000E941F02DC01CB01BC01CD010E9449004C
:10528000DC01CB019E838D830FC089E190E09C837C
:105290008B838B819C810197F1F79C838B838D811C
:1052A0009E8101979E838D838D819E81009769F7F2
:1052B00014C06F81788589859A850E944900DC0138
:1052C000CB019E838D838D819E819A838983898181
:1052D0009A810197F1F79A8389832F960FB6F894F4
:1052E000DEBF0FBECDBFCF91DF910895DF93CF9387
:1052F000CDB7DEB72F970FB6F894DEBF0FBECDBF88
:105300008F878F85982F92959F7081E4692F0E94D7
:10531000162482E461E041E00E94EF1F0E94D5273D
:1053200081E46F850E94162482E461E041E00E94DE
:10533000EF1F0E94D52780E090E0A0E8BFE38B87B5
:105340009C87AD87BE876B857C858D859E8520E09B
:1053500030E04AE753E40E941F02DC01CB018F8357
:105360009887A987BA876F81788589859A8520E093
:1053700030E040E85FE30E94250488232CF481E0BC
:1053800090E09E838D833FC06F81788589859A8563
:1053900020E03FEF4FE757E40E94C50318164CF595
:1053A0006B857C858D859E8520E030E040E251E470
:1053B0000E941F02DC01CB01BC01CD010E9449000B
:1053C000DC01CB019E838D830FC089E190E09C833B
:1053D0008B838B819C810197F1F79C838B838D81DB
:1053E0009E8101979E838D838D819E81009769F7B1
:1053F00014C06F81788589859A850E944900DC01F7
:10540000CB019E838D838D819E819A83898389813F
:105410009A810197F1F79A8389832F960FB6F894B2
:10542000DEBF0FBECDBFCF91DF910895DF93CF9345
:1054300000D0CDB7DEB79A8389830AC0E981FA81AB
:1054400080810E94762989819A8101969A83898335
:10545000E981FA818081882389F70F900F90CF919D
:10546000DF910895DF93CF93CDB7DEB72E970FB6B8
:10547000F894DEBF0FBECDBF81E00E94D62880E049
:1054800090E0A0E2B1E48B879C87AD87BE876B85F7
:105490007C858D859E8520E030E04AE753E40E94BC
:1054A0001F02DC01CB018F839887A987BA876F81A0
:1054B000788589859A8520E030E040E85FE30E94A6
:1054C000250488232CF481E090E09E838D833FC0E7
:1054D0006F81788589859A8520E03FEF4FE757E413
:1054E0000E94C50318164CF56B857C858D859E85BD
:1054F00020E030E040E251E40E941F02DC01CB01D9
:10550000BC01CD010E944900DC01CB019E838D834B
:105510000FC089E190E09C838B838B819C810197F4
:10552000F1F79C838B838D819E8101979E838D8370
:105530008D819E81009769F714C06F817885898578
:105540009A850E944900DC01CB019E838D838D8169
:105550009E819A83898389819A810197F1F79A8341
:1055600089832E960FB6F894DEBF0FBECDBFCF91C4
:10557000DF910895DF93CF93CDB7DEB761970FB674
:10558000F894DEBF0FBECDBF888B698B88898330CE
:1055900048F48889882331F08989813118F4898910
:1055A000882319F480E88F870DC08889813021F421
:1055B000898981588F8706C08889823019F4898942
:1055C00081548F878F850E94D62880E090E0A0E8E4
:1055D000BFE38B879C87AD87BE876B857C858D8578
:1055E0009E8520E030E04AE753E40E941F02DC0180
:1055F000CB018F839887A987BA876F817885898542
:105600009A8520E030E040E85FE30E94250488238B
:105610002CF481E090E09E838D833FC06F8178857C
:1056200089859A8520E03FEF4FE757E40E94C50344
:1056300018164CF56B857C858D859E8520E030E0C5
:1056400040E251E40E941F02DC01CB01BC01CD010C
:105650000E944900DC01CB019E838D830FC089E14C
:1056600090E09C838B838B819C810197F1F79C83D5
:105670008B838D819E8101979E838D838D819E81F9
:10568000009769F714C06F81788589859A850E9493
:105690004900DC01CB019E838D838D819E819A839D
:1056A000898389819A810197F1F79A838983619629
:1056B0000FB6F894DEBF0FBECDBFCF91DF91089536
:1056C000DF93CF9300D0CDB7DEB79A838983E9818A
:1056D000FA818081E981FA819181692F40E00E94FD
:1056E000DE150F900F90CF91DF910895DF93CF9348
:1056F00000D000D0CDB7DEB79C838B83EB81FC81DB
:105700008081EB81FC8191819E012E5F3F4F692F4B
:10571000A9010E94021889838A81EB81FC8182831E
:1057200089810F900F900F900F90CF91DF91089586
:10573000DF93CF93CDB7DEB783E08093B70182E0EC
:105740008093B80181E08093A80182E08093A90151
:105750000E941E1280E00E943A1280E062E00E94E5
:10576000B612A2E3B0E0E2E3F0E0808184608C93C3
:1057700022E33EE280E0B9010E94C21382E00E946F
:105780003A1282E062E00E94B612A8E3B0E0E8E3D9
:10579000F0E0808184608C932CE33EE282E0B901EA
:1057A0000E94C21381E08093B10183E08093AF0136
:1057B00084E08093B00183E064E041E00E94DE1564
:1057C0008FEA91E00E94E91C1092A6011092A701B5
:1057D0001092A50185EA91E00E945B1E85EA91E0A6
:1057E0000E94851E81E0809384011092B60181E0C1
:1057F0008093AE011092AB011092AD0185E08093D1
:10580000AC018BEA91E00E94FE092BED3DE280E0C5
:10581000B9010E94690F80E06EEF70E00E948C0A6F
:10582000CF91DF910895DF93CF93CDB7DEB7ED979A
:105830000FB6F894DEBF0FBECDBF8091B601282F02
:1058400030E03AA329A389A19AA1009739F029A1B0
:105850003AA12130310509F457C1A4C18091B901A1
:10586000813051F48091AA01882309F09BC10E94E4
:105870009D1E10928F0143C18091AA01813051F485
:105880008091B901882309F08DC10E94B41E109245
:105890008F0135C180918F01882341F481E080938D
:1058A0008F0180E991E00E940C2E29C1CE01019662
:1058B0000E940C2E3981398F8A818A8F9B819B8F20
:1058C0002C812C8F3D813D8F8E818E8F9F819F8F6C
:1058D000288528A330919001398B809191018A8B82
:1058E000909192019B8B209193012C8B309194018C
:1058F0003D8B809195018E8B909196019F8B20918D
:105900009701288F398D8989381B3BA391E09BA78C
:105910002BA1398D321708F01BA68A8D9A89891B15
:105920008CA321E02CA73CA18A8D831708F01CA62C
:105930009CA12BA5921B9DA731E03EA78DA59CA104
:10594000981708F01EA62CA53EA5232B2CA78DA5E5
:105950008CA39B8D2B89921B9DA331E03FA78DA12A
:105960009B8D981708F01FA62DA13CA5231B28ABE3
:1059700081E089AB98A92DA1291708F019AA3FA5A4
:1059800089A9382B3FA798A99DA32C8D3C89231B5F
:105990002EA381E08AAB9EA12C8D291708F01AAAAC
:1059A0003EA18FA5381B3BAB91E09CAB2BA93EA140
:1059B000321708F01CAA8AA99CA9892B8AAB2BA9AB
:1059C0002EA33D8D8D89381B3FA391E09DAB2FA168
:1059D0003D8D321708F01DAA8FA19AA9891B8EABA5
:1059E00021E02FAB3EA98FA1831708F01FAA9DA924
:1059F0002FA9922B9DAB3EA93FA38E8D9E89891B1B
:105A000088A721E028AF38A58E8D831708F018AE3F
:105A100098A52DA9921B99AF31E03AAF89AD98A511
:105A2000981708F01AAE28AD3AAD232B28AF89ADF0
:105A300088A79F8D2F89921B99A731E03BAF89A53D
:105A40009F8D981708F01BAE29A538AD231B2CAFEE
:105A500081E08DAF9CAD29A5291708F01DAE3BADA7
:105A60008DAD382B3BAF9CAD99A728A1388D231B5A
:105A70002AA78AA59BAD891B8AA72BA129873CA1B0
:105A80003A878DA18B879EA19C872FA12D8738A552
:105A90003E8789A58F879AA5988B2889222351F55F
:105AA0003889332361F58F85882321F59F859923D4
:105AB00031F52E852223F1F43E85332301F58D85C2
:105AC0008823C1F49D859923D1F42C85222391F458
:105AD0003C853323A1F48B85882361F49B8599232E
